{
    "contractName": "Shields",
    "abi": [
        {
            "anonymous": false,
            "inputs": [
                {
                    "indexed": true,
                    "internalType": "address",
                    "name": "owner",
                    "type": "address"
                },
                {
                    "indexed": true,
                    "internalType": "address",
                    "name": "approved",
                    "type": "address"
                },
                {
                    "indexed": true,
                    "internalType": "uint256",
                    "name": "tokenId",
                    "type": "uint256"
                }
            ],
            "name": "Approval",
            "type": "event"
        },
        {
            "anonymous": false,
            "inputs": [
                {
                    "indexed": true,
                    "internalType": "address",
                    "name": "owner",
                    "type": "address"
                },
                {
                    "indexed": true,
                    "internalType": "address",
                    "name": "operator",
                    "type": "address"
                },
                {
                    "indexed": false,
                    "internalType": "bool",
                    "name": "approved",
                    "type": "bool"
                }
            ],
            "name": "ApprovalForAll",
            "type": "event"
        },
        {
            "anonymous": false,
            "inputs": [
                {
                    "indexed": true,
                    "internalType": "uint256",
                    "name": "shield",
                    "type": "uint256"
                },
                {
                    "indexed": true,
                    "internalType": "address",
                    "name": "minter",
                    "type": "address"
                }
            ],
            "name": "NewShield",
            "type": "event"
        },
        {
            "anonymous": false,
            "inputs": [
                {
                    "indexed": true,
                    "internalType": "bytes32",
                    "name": "role",
                    "type": "bytes32"
                },
                {
                    "indexed": true,
                    "internalType": "bytes32",
                    "name": "previousAdminRole",
                    "type": "bytes32"
                },
                {
                    "indexed": true,
                    "internalType": "bytes32",
                    "name": "newAdminRole",
                    "type": "bytes32"
                }
            ],
            "name": "RoleAdminChanged",
            "type": "event"
        },
        {
            "anonymous": false,
            "inputs": [
                {
                    "indexed": true,
                    "internalType": "bytes32",
                    "name": "role",
                    "type": "bytes32"
                },
                {
                    "indexed": true,
                    "internalType": "address",
                    "name": "account",
                    "type": "address"
                },
                {
                    "indexed": true,
                    "internalType": "address",
                    "name": "sender",
                    "type": "address"
                }
            ],
            "name": "RoleGranted",
            "type": "event"
        },
        {
            "anonymous": false,
            "inputs": [
                {
                    "indexed": true,
                    "internalType": "bytes32",
                    "name": "role",
                    "type": "bytes32"
                },
                {
                    "indexed": true,
                    "internalType": "address",
                    "name": "account",
                    "type": "address"
                },
                {
                    "indexed": true,
                    "internalType": "address",
                    "name": "sender",
                    "type": "address"
                }
            ],
            "name": "RoleRevoked",
            "type": "event"
        },
        {
            "anonymous": false,
            "inputs": [
                {
                    "indexed": true,
                    "internalType": "address",
                    "name": "from",
                    "type": "address"
                },
                {
                    "indexed": true,
                    "internalType": "address",
                    "name": "to",
                    "type": "address"
                },
                {
                    "indexed": true,
                    "internalType": "uint256",
                    "name": "tokenId",
                    "type": "uint256"
                }
            ],
            "name": "Transfer",
            "type": "event"
        },
        {
            "inputs": [],
            "name": "DEFAULT_ADMIN_ROLE",
            "outputs": [
                {
                    "internalType": "bytes32",
                    "name": "",
                    "type": "bytes32"
                }
            ],
            "stateMutability": "view",
            "type": "function"
        },
        {
            "inputs": [],
            "name": "GAME_ADMIN",
            "outputs": [
                {
                    "internalType": "bytes32",
                    "name": "",
                    "type": "bytes32"
                }
            ],
            "stateMutability": "view",
            "type": "function"
        },
        {
            "inputs": [
                {
                    "internalType": "address",
                    "name": "to",
                    "type": "address"
                },
                {
                    "internalType": "uint256",
                    "name": "tokenId",
                    "type": "uint256"
                }
            ],
            "name": "approve",
            "outputs": [],
            "stateMutability": "nonpayable",
            "type": "function"
        },
        {
            "inputs": [
                {
                    "internalType": "address",
                    "name": "owner",
                    "type": "address"
                }
            ],
            "name": "balanceOf",
            "outputs": [
                {
                    "internalType": "uint256",
                    "name": "",
                    "type": "uint256"
                }
            ],
            "stateMutability": "view",
            "type": "function"
        },
        {
            "inputs": [],
            "name": "baseURI",
            "outputs": [
                {
                    "internalType": "string",
                    "name": "",
                    "type": "string"
                }
            ],
            "stateMutability": "view",
            "type": "function"
        },
        {
            "inputs": [],
            "name": "defenseMultPerPointBasic",
            "outputs": [
                {
                    "internalType": "int128",
                    "name": "",
                    "type": "int128"
                }
            ],
            "stateMutability": "view",
            "type": "function"
        },
        {
            "inputs": [],
            "name": "defenseMultPerPointDEF",
            "outputs": [
                {
                    "internalType": "int128",
                    "name": "",
                    "type": "int128"
                }
            ],
            "stateMutability": "view",
            "type": "function"
        },
        {
            "inputs": [],
            "name": "defenseMultPerPointMatching",
            "outputs": [
                {
                    "internalType": "int128",
                    "name": "",
                    "type": "int128"
                }
            ],
            "stateMutability": "view",
            "type": "function"
        },
        {
            "inputs": [
                {
                    "internalType": "uint256",
                    "name": "id",
                    "type": "uint256"
                },
                {
                    "internalType": "uint8",
                    "name": "amount",
                    "type": "uint8"
                }
            ],
            "name": "drainDurability",
            "outputs": [],
            "stateMutability": "nonpayable",
            "type": "function"
        },
        {
            "inputs": [
                {
                    "internalType": "uint256",
                    "name": "id",
                    "type": "uint256"
                }
            ],
            "name": "get",
            "outputs": [
                {
                    "internalType": "uint16",
                    "name": "_properties",
                    "type": "uint16"
                },
                {
                    "internalType": "uint16",
                    "name": "_stat1",
                    "type": "uint16"
                },
                {
                    "internalType": "uint16",
                    "name": "_stat2",
                    "type": "uint16"
                },
                {
                    "internalType": "uint16",
                    "name": "_stat3",
                    "type": "uint16"
                }
            ],
            "stateMutability": "view",
            "type": "function"
        },
        {
            "inputs": [
                {
                    "internalType": "uint256",
                    "name": "tokenId",
                    "type": "uint256"
                }
            ],
            "name": "getApproved",
            "outputs": [
                {
                    "internalType": "address",
                    "name": "",
                    "type": "address"
                }
            ],
            "stateMutability": "view",
            "type": "function"
        },
        {
            "inputs": [
                {
                    "internalType": "uint256",
                    "name": "id",
                    "type": "uint256"
                }
            ],
            "name": "getDefenseMultiplier",
            "outputs": [
                {
                    "internalType": "int128",
                    "name": "",
                    "type": "int128"
                }
            ],
            "stateMutability": "view",
            "type": "function"
        },
        {
            "inputs": [
                {
                    "internalType": "uint16",
                    "name": "properties",
                    "type": "uint16"
                },
                {
                    "internalType": "uint16",
                    "name": "stat1",
                    "type": "uint16"
                },
                {
                    "internalType": "uint16",
                    "name": "stat2",
                    "type": "uint16"
                },
                {
                    "internalType": "uint16",
                    "name": "stat3",
                    "type": "uint16"
                },
                {
                    "internalType": "uint8",
                    "name": "trait",
                    "type": "uint8"
                }
            ],
            "name": "getDefenseMultiplierForTrait",
            "outputs": [
                {
                    "internalType": "int128",
                    "name": "",
                    "type": "int128"
                }
            ],
            "stateMutability": "view",
            "type": "function"
        },
        {
            "inputs": [],
            "name": "getDurabilityMaxWait",
            "outputs": [
                {
                    "internalType": "uint64",
                    "name": "",
                    "type": "uint64"
                }
            ],
            "stateMutability": "pure",
            "type": "function"
        },
        {
            "inputs": [
                {
                    "internalType": "uint256",
                    "name": "id",
                    "type": "uint256"
                }
            ],
            "name": "getDurabilityPoints",
            "outputs": [
                {
                    "internalType": "uint8",
                    "name": "",
                    "type": "uint8"
                }
            ],
            "stateMutability": "view",
            "type": "function"
        },
        {
            "inputs": [
                {
                    "internalType": "uint64",
                    "name": "timestamp",
                    "type": "uint64"
                }
            ],
            "name": "getDurabilityPointsFromTimestamp",
            "outputs": [
                {
                    "internalType": "uint8",
                    "name": "",
                    "type": "uint8"
                }
            ],
            "stateMutability": "view",
            "type": "function"
        },
        {
            "inputs": [
                {
                    "internalType": "uint256",
                    "name": "id",
                    "type": "uint256"
                }
            ],
            "name": "getDurabilityTimestamp",
            "outputs": [
                {
                    "internalType": "uint64",
                    "name": "",
                    "type": "uint64"
                }
            ],
            "stateMutability": "view",
            "type": "function"
        },
        {
            "inputs": [
                {
                    "internalType": "uint256",
                    "name": "id",
                    "type": "uint256"
                },
                {
                    "internalType": "uint8",
                    "name": "charTrait",
                    "type": "uint8"
                }
            ],
            "name": "getFightData",
            "outputs": [
                {
                    "internalType": "int128",
                    "name": "",
                    "type": "int128"
                },
                {
                    "internalType": "int128",
                    "name": "",
                    "type": "int128"
                },
                {
                    "internalType": "uint24",
                    "name": "",
                    "type": "uint24"
                },
                {
                    "internalType": "uint8",
                    "name": "",
                    "type": "uint8"
                }
            ],
            "stateMutability": "view",
            "type": "function"
        },
        {
            "inputs": [
                {
                    "internalType": "uint256",
                    "name": "id",
                    "type": "uint256"
                },
                {
                    "internalType": "uint8",
                    "name": "charTrait",
                    "type": "uint8"
                },
                {
                    "internalType": "uint8",
                    "name": "drainAmount",
                    "type": "uint8"
                }
            ],
            "name": "getFightDataAndDrainDurability",
            "outputs": [
                {
                    "internalType": "int128",
                    "name": "",
                    "type": "int128"
                },
                {
                    "internalType": "int128",
                    "name": "",
                    "type": "int128"
                },
                {
                    "internalType": "uint24",
                    "name": "",
                    "type": "uint24"
                },
                {
                    "internalType": "uint8",
                    "name": "",
                    "type": "uint8"
                }
            ],
            "stateMutability": "nonpayable",
            "type": "function"
        },
        {
            "inputs": [],
            "name": "getOwned",
            "outputs": [
                {
                    "internalType": "uint256[]",
                    "name": "",
                    "type": "uint256[]"
                }
            ],
            "stateMutability": "view",
            "type": "function"
        },
        {
            "inputs": [
                {
                    "internalType": "address",
                    "name": "owner",
                    "type": "address"
                }
            ],
            "name": "getOwnedBy",
            "outputs": [
                {
                    "internalType": "uint256[]",
                    "name": "",
                    "type": "uint256[]"
                }
            ],
            "stateMutability": "view",
            "type": "function"
        },
        {
            "inputs": [
                {
                    "internalType": "uint256",
                    "name": "id",
                    "type": "uint256"
                }
            ],
            "name": "getProperties",
            "outputs": [
                {
                    "internalType": "uint16",
                    "name": "",
                    "type": "uint16"
                }
            ],
            "stateMutability": "view",
            "type": "function"
        },
        {
            "inputs": [
                {
                    "internalType": "uint256",
                    "name": "seed",
                    "type": "uint256"
                },
                {
                    "internalType": "uint256",
                    "name": "seed2",
                    "type": "uint256"
                },
                {
                    "internalType": "uint8",
                    "name": "limit",
                    "type": "uint8"
                }
            ],
            "name": "getRandomCosmetic",
            "outputs": [
                {
                    "internalType": "uint8",
                    "name": "",
                    "type": "uint8"
                }
            ],
            "stateMutability": "pure",
            "type": "function"
        },
        {
            "inputs": [
                {
                    "internalType": "uint256",
                    "name": "stars",
                    "type": "uint256"
                },
                {
                    "internalType": "uint256",
                    "name": "seed",
                    "type": "uint256"
                }
            ],
            "name": "getRandomProperties",
            "outputs": [
                {
                    "internalType": "uint16",
                    "name": "",
                    "type": "uint16"
                }
            ],
            "stateMutability": "pure",
            "type": "function"
        },
        {
            "inputs": [
                {
                    "internalType": "uint16",
                    "name": "minRoll",
                    "type": "uint16"
                },
                {
                    "internalType": "uint16",
                    "name": "maxRoll",
                    "type": "uint16"
                },
                {
                    "internalType": "uint256",
                    "name": "seed",
                    "type": "uint256"
                },
                {
                    "internalType": "uint256",
                    "name": "seed2",
                    "type": "uint256"
                }
            ],
            "name": "getRandomStat",
            "outputs": [
                {
                    "internalType": "uint16",
                    "name": "",
                    "type": "uint16"
                }
            ],
            "stateMutability": "pure",
            "type": "function"
        },
        {
            "inputs": [
                {
                    "internalType": "bytes32",
                    "name": "role",
                    "type": "bytes32"
                }
            ],
            "name": "getRoleAdmin",
            "outputs": [
                {
                    "internalType": "bytes32",
                    "name": "",
                    "type": "bytes32"
                }
            ],
            "stateMutability": "view",
            "type": "function"
        },
        {
            "inputs": [
                {
                    "internalType": "bytes32",
                    "name": "role",
                    "type": "bytes32"
                },
                {
                    "internalType": "uint256",
                    "name": "index",
                    "type": "uint256"
                }
            ],
            "name": "getRoleMember",
            "outputs": [
                {
                    "internalType": "address",
                    "name": "",
                    "type": "address"
                }
            ],
            "stateMutability": "view",
            "type": "function"
        },
        {
            "inputs": [
                {
                    "internalType": "bytes32",
                    "name": "role",
                    "type": "bytes32"
                }
            ],
            "name": "getRoleMemberCount",
            "outputs": [
                {
                    "internalType": "uint256",
                    "name": "",
                    "type": "uint256"
                }
            ],
            "stateMutability": "view",
            "type": "function"
        },
        {
            "inputs": [
                {
                    "internalType": "uint256",
                    "name": "id",
                    "type": "uint256"
                }
            ],
            "name": "getStars",
            "outputs": [
                {
                    "internalType": "uint8",
                    "name": "",
                    "type": "uint8"
                }
            ],
            "stateMutability": "view",
            "type": "function"
        },
        {
            "inputs": [
                {
                    "internalType": "uint16",
                    "name": "properties",
                    "type": "uint16"
                }
            ],
            "name": "getStarsFromProperties",
            "outputs": [
                {
                    "internalType": "uint8",
                    "name": "",
                    "type": "uint8"
                }
            ],
            "stateMutability": "pure",
            "type": "function"
        },
        {
            "inputs": [
                {
                    "internalType": "uint256",
                    "name": "id",
                    "type": "uint256"
                }
            ],
            "name": "getStat1",
            "outputs": [
                {
                    "internalType": "uint16",
                    "name": "",
                    "type": "uint16"
                }
            ],
            "stateMutability": "view",
            "type": "function"
        },
        {
            "inputs": [
                {
                    "internalType": "uint8",
                    "name": "statPattern",
                    "type": "uint8"
                }
            ],
            "name": "getStat1Trait",
            "outputs": [
                {
                    "internalType": "uint8",
                    "name": "",
                    "type": "uint8"
                }
            ],
            "stateMutability": "pure",
            "type": "function"
        },
        {
            "inputs": [
                {
                    "internalType": "uint256",
                    "name": "id",
                    "type": "uint256"
                }
            ],
            "name": "getStat2",
            "outputs": [
                {
                    "internalType": "uint16",
                    "name": "",
                    "type": "uint16"
                }
            ],
            "stateMutability": "view",
            "type": "function"
        },
        {
            "inputs": [
                {
                    "internalType": "uint8",
                    "name": "statPattern",
                    "type": "uint8"
                }
            ],
            "name": "getStat2Trait",
            "outputs": [
                {
                    "internalType": "uint8",
                    "name": "",
                    "type": "uint8"
                }
            ],
            "stateMutability": "pure",
            "type": "function"
        },
        {
            "inputs": [
                {
                    "internalType": "uint256",
                    "name": "id",
                    "type": "uint256"
                }
            ],
            "name": "getStat3",
            "outputs": [
                {
                    "internalType": "uint16",
                    "name": "",
                    "type": "uint16"
                }
            ],
            "stateMutability": "view",
            "type": "function"
        },
        {
            "inputs": [
                {
                    "internalType": "uint8",
                    "name": "statPattern",
                    "type": "uint8"
                }
            ],
            "name": "getStat3Trait",
            "outputs": [
                {
                    "internalType": "uint8",
                    "name": "",
                    "type": "uint8"
                }
            ],
            "stateMutability": "pure",
            "type": "function"
        },
        {
            "inputs": [
                {
                    "internalType": "uint256",
                    "name": "stars",
                    "type": "uint256"
                }
            ],
            "name": "getStatCount",
            "outputs": [
                {
                    "internalType": "uint8",
                    "name": "",
                    "type": "uint8"
                }
            ],
            "stateMutability": "pure",
            "type": "function"
        },
        {
            "inputs": [
                {
                    "internalType": "uint256",
                    "name": "stars",
                    "type": "uint256"
                }
            ],
            "name": "getStatMaxRoll",
            "outputs": [
                {
                    "internalType": "uint16",
                    "name": "",
                    "type": "uint16"
                }
            ],
            "stateMutability": "pure",
            "type": "function"
        },
        {
            "inputs": [
                {
                    "internalType": "uint256",
                    "name": "stars",
                    "type": "uint256"
                }
            ],
            "name": "getStatMinRoll",
            "outputs": [
                {
                    "internalType": "uint16",
                    "name": "",
                    "type": "uint16"
                }
            ],
            "stateMutability": "pure",
            "type": "function"
        },
        {
            "inputs": [
                {
                    "internalType": "uint256",
                    "name": "id",
                    "type": "uint256"
                }
            ],
            "name": "getStatPattern",
            "outputs": [
                {
                    "internalType": "uint8",
                    "name": "",
                    "type": "uint8"
                }
            ],
            "stateMutability": "view",
            "type": "function"
        },
        {
            "inputs": [
                {
                    "internalType": "uint16",
                    "name": "properties",
                    "type": "uint16"
                }
            ],
            "name": "getStatPatternFromProperties",
            "outputs": [
                {
                    "internalType": "uint8",
                    "name": "",
                    "type": "uint8"
                }
            ],
            "stateMutability": "pure",
            "type": "function"
        },
        {
            "inputs": [
                {
                    "internalType": "uint256",
                    "name": "id",
                    "type": "uint256"
                }
            ],
            "name": "getTrait",
            "outputs": [
                {
                    "internalType": "uint8",
                    "name": "",
                    "type": "uint8"
                }
            ],
            "stateMutability": "view",
            "type": "function"
        },
        {
            "inputs": [
                {
                    "internalType": "uint16",
                    "name": "properties",
                    "type": "uint16"
                }
            ],
            "name": "getTraitFromProperties",
            "outputs": [
                {
                    "internalType": "uint8",
                    "name": "",
                    "type": "uint8"
                }
            ],
            "stateMutability": "pure",
            "type": "function"
        },
        {
            "inputs": [
                {
                    "internalType": "bytes32",
                    "name": "role",
                    "type": "bytes32"
                },
                {
                    "internalType": "address",
                    "name": "account",
                    "type": "address"
                }
            ],
            "name": "grantRole",
            "outputs": [],
            "stateMutability": "nonpayable",
            "type": "function"
        },
        {
            "inputs": [
                {
                    "internalType": "bytes32",
                    "name": "role",
                    "type": "bytes32"
                },
                {
                    "internalType": "address",
                    "name": "account",
                    "type": "address"
                }
            ],
            "name": "hasRole",
            "outputs": [
                {
                    "internalType": "bool",
                    "name": "",
                    "type": "bool"
                }
            ],
            "stateMutability": "view",
            "type": "function"
        },
        {
            "inputs": [],
            "name": "initialize",
            "outputs": [],
            "stateMutability": "nonpayable",
            "type": "function"
        },
        {
            "inputs": [
                {
                    "internalType": "address",
                    "name": "owner",
                    "type": "address"
                },
                {
                    "internalType": "address",
                    "name": "operator",
                    "type": "address"
                }
            ],
            "name": "isApprovedForAll",
            "outputs": [
                {
                    "internalType": "bool",
                    "name": "",
                    "type": "bool"
                }
            ],
            "stateMutability": "view",
            "type": "function"
        },
        {
            "inputs": [
                {
                    "internalType": "uint256",
                    "name": "id",
                    "type": "uint256"
                }
            ],
            "name": "isDurabilityFull",
            "outputs": [
                {
                    "internalType": "bool",
                    "name": "",
                    "type": "bool"
                }
            ],
            "stateMutability": "view",
            "type": "function"
        },
        {
            "inputs": [],
            "name": "maxDurability",
            "outputs": [
                {
                    "internalType": "uint256",
                    "name": "",
                    "type": "uint256"
                }
            ],
            "stateMutability": "view",
            "type": "function"
        },
        {
            "inputs": [
                {
                    "internalType": "contract Promos",
                    "name": "_promos",
                    "type": "address"
                }
            ],
            "name": "migrateTo_surprise",
            "outputs": [],
            "stateMutability": "nonpayable",
            "type": "function"
        },
        {
            "inputs": [
                {
                    "internalType": "address",
                    "name": "minter",
                    "type": "address"
                },
                {
                    "internalType": "uint256",
                    "name": "seed",
                    "type": "uint256"
                }
            ],
            "name": "mint",
            "outputs": [
                {
                    "internalType": "uint256",
                    "name": "",
                    "type": "uint256"
                }
            ],
            "stateMutability": "nonpayable",
            "type": "function"
        },
        {
            "inputs": [
                {
                    "internalType": "address",
                    "name": "buyer",
                    "type": "address"
                }
            ],
            "name": "mintForPurchase",
            "outputs": [],
            "stateMutability": "nonpayable",
            "type": "function"
        },
        {
            "inputs": [
                {
                    "internalType": "address",
                    "name": "minter",
                    "type": "address"
                },
                {
                    "internalType": "uint256",
                    "name": "stars",
                    "type": "uint256"
                },
                {
                    "internalType": "uint256",
                    "name": "seed",
                    "type": "uint256"
                }
            ],
            "name": "mintShieldWithStars",
            "outputs": [
                {
                    "internalType": "uint256",
                    "name": "",
                    "type": "uint256"
                }
            ],
            "stateMutability": "nonpayable",
            "type": "function"
        },
        {
            "inputs": [],
            "name": "name",
            "outputs": [
                {
                    "internalType": "string",
                    "name": "",
                    "type": "string"
                }
            ],
            "stateMutability": "view",
            "type": "function"
        },
        {
            "inputs": [
                {
                    "internalType": "uint256",
                    "name": "tokenId",
                    "type": "uint256"
                }
            ],
            "name": "ownerOf",
            "outputs": [
                {
                    "internalType": "address",
                    "name": "",
                    "type": "address"
                }
            ],
            "stateMutability": "view",
            "type": "function"
        },
        {
            "inputs": [
                {
                    "internalType": "address",
                    "name": "minter",
                    "type": "address"
                },
                {
                    "internalType": "uint16",
                    "name": "properties",
                    "type": "uint16"
                },
                {
                    "internalType": "uint16",
                    "name": "stat1",
                    "type": "uint16"
                },
                {
                    "internalType": "uint16",
                    "name": "stat2",
                    "type": "uint16"
                },
                {
                    "internalType": "uint16",
                    "name": "stat3",
                    "type": "uint16"
                },
                {
                    "internalType": "uint256",
                    "name": "cosmeticSeed",
                    "type": "uint256"
                }
            ],
            "name": "performMintShield",
            "outputs": [
                {
                    "internalType": "uint256",
                    "name": "",
                    "type": "uint256"
                }
            ],
            "stateMutability": "nonpayable",
            "type": "function"
        },
        {
            "inputs": [],
            "name": "promos",
            "outputs": [
                {
                    "internalType": "contract Promos",
                    "name": "",
                    "type": "address"
                }
            ],
            "stateMutability": "view",
            "type": "function"
        },
        {
            "inputs": [
                {
                    "internalType": "bytes32",
                    "name": "role",
                    "type": "bytes32"
                },
                {
                    "internalType": "address",
                    "name": "account",
                    "type": "address"
                }
            ],
            "name": "renounceRole",
            "outputs": [],
            "stateMutability": "nonpayable",
            "type": "function"
        },
        {
            "inputs": [
                {
                    "internalType": "bytes32",
                    "name": "role",
                    "type": "bytes32"
                },
                {
                    "internalType": "address",
                    "name": "account",
                    "type": "address"
                }
            ],
            "name": "revokeRole",
            "outputs": [],
            "stateMutability": "nonpayable",
            "type": "function"
        },
        {
            "inputs": [
                {
                    "internalType": "address",
                    "name": "from",
                    "type": "address"
                },
                {
                    "internalType": "address",
                    "name": "to",
                    "type": "address"
                },
                {
                    "internalType": "uint256",
                    "name": "tokenId",
                    "type": "uint256"
                }
            ],
            "name": "safeTransferFrom",
            "outputs": [],
            "stateMutability": "nonpayable",
            "type": "function"
        },
        {
            "inputs": [
                {
                    "internalType": "address",
                    "name": "from",
                    "type": "address"
                },
                {
                    "internalType": "address",
                    "name": "to",
                    "type": "address"
                },
                {
                    "internalType": "uint256",
                    "name": "tokenId",
                    "type": "uint256"
                },
                {
                    "internalType": "bytes",
                    "name": "_data",
                    "type": "bytes"
                }
            ],
            "name": "safeTransferFrom",
            "outputs": [],
            "stateMutability": "nonpayable",
            "type": "function"
        },
        {
            "inputs": [],
            "name": "secondsPerDurability",
            "outputs": [
                {
                    "internalType": "uint256",
                    "name": "",
                    "type": "uint256"
                }
            ],
            "stateMutability": "view",
            "type": "function"
        },
        {
            "inputs": [
                {
                    "internalType": "address",
                    "name": "operator",
                    "type": "address"
                },
                {
                    "internalType": "bool",
                    "name": "approved",
                    "type": "bool"
                }
            ],
            "name": "setApprovalForAll",
            "outputs": [],
            "stateMutability": "nonpayable",
            "type": "function"
        },
        {
            "inputs": [
                {
                    "internalType": "uint256",
                    "name": "id",
                    "type": "uint256"
                },
                {
                    "internalType": "uint64",
                    "name": "timestamp",
                    "type": "uint64"
                }
            ],
            "name": "setDurabilityTimestamp",
            "outputs": [],
            "stateMutability": "nonpayable",
            "type": "function"
        },
        {
            "inputs": [],
            "name": "shieldBaseMultiplier",
            "outputs": [
                {
                    "internalType": "int128",
                    "name": "",
                    "type": "int128"
                }
            ],
            "stateMutability": "view",
            "type": "function"
        },
        {
            "inputs": [
                {
                    "internalType": "bytes4",
                    "name": "interfaceId",
                    "type": "bytes4"
                }
            ],
            "name": "supportsInterface",
            "outputs": [
                {
                    "internalType": "bool",
                    "name": "",
                    "type": "bool"
                }
            ],
            "stateMutability": "view",
            "type": "function"
        },
        {
            "inputs": [],
            "name": "symbol",
            "outputs": [
                {
                    "internalType": "string",
                    "name": "",
                    "type": "string"
                }
            ],
            "stateMutability": "view",
            "type": "function"
        },
        {
            "inputs": [
                {
                    "internalType": "uint256",
                    "name": "index",
                    "type": "uint256"
                }
            ],
            "name": "tokenByIndex",
            "outputs": [
                {
                    "internalType": "uint256",
                    "name": "",
                    "type": "uint256"
                }
            ],
            "stateMutability": "view",
            "type": "function"
        },
        {
            "inputs": [
                {
                    "internalType": "address",
                    "name": "owner",
                    "type": "address"
                },
                {
                    "internalType": "uint256",
                    "name": "index",
                    "type": "uint256"
                }
            ],
            "name": "tokenOfOwnerByIndex",
            "outputs": [
                {
                    "internalType": "uint256",
                    "name": "",
                    "type": "uint256"
                }
            ],
            "stateMutability": "view",
            "type": "function"
        },
        {
            "inputs": [
                {
                    "internalType": "uint256",
                    "name": "tokenId",
                    "type": "uint256"
                }
            ],
            "name": "tokenURI",
            "outputs": [
                {
                    "internalType": "string",
                    "name": "",
                    "type": "string"
                }
            ],
            "stateMutability": "view",
            "type": "function"
        },
        {
            "inputs": [
                {
                    "internalType": "uint256",
                    "name": "",
                    "type": "uint256"
                }
            ],
            "name": "tokens",
            "outputs": [
                {
                    "internalType": "uint16",
                    "name": "properties",
                    "type": "uint16"
                },
                {
                    "internalType": "uint16",
                    "name": "stat1",
                    "type": "uint16"
                },
                {
                    "internalType": "uint16",
                    "name": "stat2",
                    "type": "uint16"
                },
                {
                    "internalType": "uint16",
                    "name": "stat3",
                    "type": "uint16"
                }
            ],
            "stateMutability": "view",
            "type": "function"
        },
        {
            "inputs": [],
            "name": "totalSupply",
            "outputs": [
                {
                    "internalType": "uint256",
                    "name": "",
                    "type": "uint256"
                }
            ],
            "stateMutability": "view",
            "type": "function"
        },
        {
            "inputs": [
                {
                    "internalType": "address",
                    "name": "from",
                    "type": "address"
                },
                {
                    "internalType": "address",
                    "name": "to",
                    "type": "address"
                },
                {
                    "internalType": "uint256",
                    "name": "tokenId",
                    "type": "uint256"
                }
            ],
            "name": "transferFrom",
            "outputs": [],
            "stateMutability": "nonpayable",
            "type": "function"
        }
    ],
    "bytecode": "608060405234801561001057600080fd5b50614631806100206000396000f3fe608060405234801561001057600080fd5b50600436106104335760003560e01c80638b9b57bf11610236578063c30275251161013b578063d9514cb3116100c3578063e985e9c511610087578063e985e9c514610ee9578063ecd4738b14610f17578063f8e678a714610f43578063fa9b6e8714610f4b578063fa9e839814610f6857610433565b8063d9514cb314610e42578063dfd3712914610e5f578063e06efad814610e80578063e076088614610e9d578063e291298f14610ec357610433565b8063ca15c8731161010a578063ca15c87314610d90578063d3f6797c14610dad578063d547741f14610dca578063d58227c814610df6578063d7af7ad214610e1c57610433565b8063c302752514610cd7578063c366620b14610d2f578063c6a5108814610d53578063c87b56dd14610d7357610433565b8063a217fddf116101be578063adf04f201161018d578063adf04f2014610ba1578063af8a29bf14610bbe578063b07f67b014610bc6578063b88d4fde14610bce578063baa049f414610c9257610433565b8063a217fddf14610b1c578063a22cb46514610b24578063ac69ccc714610b52578063acb586df14610b8457610433565b806391d148541161020557806391d1485414610a845780639507d39a14610ab057806395d06a0f14610acd57806395d89b4114610aee5780639e2e346214610af657610433565b80638b9b57bf14610a305780638c7f724214610a515780638cfd4e2d14610a595780639010d07c14610a6157610433565b80632f745c591161033c5780634fbff6a2116102c45780636352211e116102935780636352211e146109ba5780636c0360eb146109d757806370a08231146109df57806380aa68cd14610a055780638129fc1c14610a2857610433565b80634fbff6a21461096d57806351e717ac1461098d57806352bc59ea146109955780635504d3d2146109b257610433565b806340c10f191161030b57806340c10f191461083d57806342842e0e1461086957806344d59e0a1461089f5780634f64b2be146109045780634f6ccce71461095057610433565b80632f745c5914610791578063316a7ba5146107bd57806336568abe146107da5780633e68b6041461080657610433565b80631b8ca217116103bf57806327cd91de1161038e57806327cd91de146106e25780632a9f22f2146106ff5780632c3048a21461071c5780632c3fc619146107395780632f2ff15d1461076557610433565b80631b8ca2171461063e57806323b872dd14610672578063248a9ca3146106a857806324f7bb1b146106c557610433565b80630a583a93116104065780630a583a93146105575780630a724cff1461058e57806316f1daf6146105ae57806318160ddd146105d45780631a71516e146105ee57610433565b806301ffc9a71461043857806306fdde0314610473578063081812fc146104f0578063095ea7b314610529575b600080fd5b61045f6004803603602081101561044e57600080fd5b50356001600160e01b031916610f85565b604080519115158252519081900360200190f35b61047b610fa8565b6040805160208082528351818301528351919283929083019185019080838360005b838110156104b557818101518382015260200161049d565b50505050905090810190601f1680156104e25780820380516001836020036101000a031916815260200191505b509250505060405180910390f35b61050d6004803603602081101561050657600080fd5b503561103f565b604080516001600160a01b039092168252519081900360200190f35b6105556004803603604081101561053f57600080fd5b506001600160a01b0381351690602001356110a1565b005b6105786004803603602081101561056d57600080fd5b503561ffff1661117c565b6040805160ff9092168252519081900360200190f35b610578600480360360208110156105a457600080fd5b503560ff16611182565b610578600480360360208110156105c457600080fd5b50356001600160401b03166111a2565b6105dc6111e0565b60408051918252519081900360200190f35b6105dc600480360360c081101561060457600080fd5b506001600160a01b038135169061ffff60208201358116916040810135821691606082013581169160808101359091169060a001356111f1565b61065b6004803603602081101561065457600080fd5b50356113f0565b6040805161ffff9092168252519081900360200190f35b6105556004803603606081101561068857600080fd5b506001600160a01b03813581169160208101359091169060400135611420565b6105dc600480360360208110156106be57600080fd5b5035611477565b610578600480360360208110156106db57600080fd5b503561148c565b61065b600480360360208110156106f857600080fd5b50356114b0565b6105786004803603602081101561071557600080fd5b50356114e7565b61065b6004803603602081101561073257600080fd5b5035611502565b6105556004803603604081101561074f57600080fd5b50803590602001356001600160401b0316611538565b6105556004803603604081101561077b57600080fd5b50803590602001356001600160a01b031661156f565b6105dc600480360360408110156107a757600080fd5b506001600160a01b0381351690602001356115db565b61065b600480360360208110156107d357600080fd5b5035611603565b610555600480360360408110156107f057600080fd5b50803590602001356001600160a01b031661164f565b61065b6004803603608081101561081c57600080fd5b5061ffff8135811691602081013590911690604081013590606001356116b0565b6105dc6004803603604081101561085357600080fd5b506001600160a01b0381351690602001356116d9565b6105556004803603606081101561087f57600080fd5b506001600160a01b0381358116916020810135909116906040013561174a565b6108cd600480360360608110156108b557600080fd5b5080359060ff60208201358116916040013516611765565b60408051600f95860b860b815293850b90940b602084015262ffffff9091168284015260ff16606082015290519081900360800190f35b6109216004803603602081101561091a57600080fd5b5035611960565b6040805161ffff9586168152938516602085015291841683830152909216606082015290519081900360800190f35b6105dc6004803603602081101561096657600080fd5b50356119a0565b6105786004803603602081101561098357600080fd5b503560ff166119bc565b61050d6119ce565b610578600480360360208110156109ab57600080fd5b50356119dd565b6105dc6119fe565b61050d600480360360208110156109d057600080fd5b5035611a20565b61047b611a4e565b6105dc600480360360208110156109f557600080fd5b50356001600160a01b0316611aaf565b61065b60048036036040811015610a1b57600080fd5b5080359060200135611b17565b610555611b59565b610a38611d2f565b60408051600f92830b90920b8252519081900360200190f35b6105dc611d3f565b610a38611d45565b61050d60048036036040811015610a7757600080fd5b5080359060200135611d4e565b61045f60048036036040811015610a9a57600080fd5b50803590602001356001600160a01b0316611d6c565b61092160048036036020811015610ac657600080fd5b5035611d8a565b61057860048036036020811015610ae357600080fd5b503561ffff16611db3565b61047b611dbc565b61055560048036036020811015610b0c57600080fd5b50356001600160a01b0316611e1d565b6105dc611ec5565b61055560048036036040811015610b3a57600080fd5b506001600160a01b0381351690602001351515611eca565b6105dc60048036036060811015610b6857600080fd5b506001600160a01b038135169060208101359060400135611fcf565b61057860048036036020811015610b9a57600080fd5b5035612059565b61057860048036036020811015610bb757600080fd5b5035612076565b610a38612093565b610a386120a3565b61055560048036036080811015610be457600080fd5b6001600160a01b03823581169260208101359091169160408201359190810190608081016060820135600160201b811115610c1e57600080fd5b820183602082011115610c3057600080fd5b803590602001918460018302840111600160201b83111715610c5157600080fd5b91908080601f0160208091040260200160405190810160405280939291908181526020018383808284376000920191909152509295506120ac945050505050565b610a38600480360360a0811015610ca857600080fd5b50803561ffff90811691602081013582169160408201358116916060810135909116906080013560ff1661210a565b610cdf612301565b60408051602080825283518183015283519192839290830191858101910280838360005b83811015610d1b578181015183820152602001610d03565b505050509050019250505060405180910390f35b610d3761230c565b604080516001600160401b039092168252519081900360200190f35b61057860048036036020811015610d6957600080fd5b503560ff16612312565b61047b60048036036020811015610d8957600080fd5b503561231f565b6105dc60048036036020811015610da657600080fd5b50356125a2565b610a3860048036036020811015610dc357600080fd5b50356125b9565b61055560048036036040811015610de057600080fd5b50803590602001356001600160a01b03166126b0565b6108cd60048036036040811015610e0c57600080fd5b508035906020013560ff16612709565b61055560048036036020811015610e3257600080fd5b50356001600160a01b03166127c0565b610d3760048036036020811015610e5857600080fd5b503561282a565b61057860048036036020811015610e7557600080fd5b503561ffff16612845565b61065b60048036036020811015610e9657600080fd5b503561284e565b61055560048036036040811015610eb357600080fd5b508035906020013560ff16612885565b610cdf60048036036020811015610ed957600080fd5b50356001600160a01b0316612998565b61045f60048036036040811015610eff57600080fd5b506001600160a01b0381358116916020013516612a22565b61057860048036036060811015610f2d57600080fd5b508035906020810135906040013560ff16612a50565b6105dc612a65565b61045f60048036036020811015610f6157600080fd5b5035612a6a565b61065b60048036036020811015610f7e57600080fd5b5035612a82565b6001600160e01b0319811660009081526033602052604090205460ff165b919050565b606a8054604080516020601f60026000196101006001881615020190951694909404938401819004810282018101909252828152606093909290918301828280156110345780601f1061100957610100808354040283529160200191611034565b820191906000526020600020905b81548152906001019060200180831161101757829003601f168201915b505050505090505b90565b600061104a82612aad565b6110855760405162461bcd60e51b815260040180806020018281038252602c8152602001806144f7602c913960400191505060405180910390fd5b506000908152606860205260409020546001600160a01b031690565b60006110ac82611a20565b9050806001600160a01b0316836001600160a01b031614156110ff5760405162461bcd60e51b815260040180806020018281038252602181526020018061457b6021913960400191505060405180910390fd5b806001600160a01b0316611111612ac0565b6001600160a01b0316148061113257506111328161112d612ac0565b612a22565b61116d5760405162461bcd60e51b815260040180806020018281038252603881526020018061441c6038913960400191505060405180910390fd5b6111778383612ac4565b505050565b60071690565b600060056111948360ff166019612b32565b8161119b57fe5b0692915050565b600042826001600160401b031611156111bd57506000610fa3565b610bb86001600160401b03831642030460148111156111da575060145b92915050565b60006111ec6066612b99565b905090565b60006111fb612ba4565b60c95460cd54431461120d5760ce8190555b4360cd556040805160808101825261ffff808a16825288811660208084019182528983168486019081528984166060860190815260c9805460018181018355600092835297517f66be4f155c5ef2ebd3772b228f2f00681e4ed5826cdb3b1943cc11ad15ad1d2890910180549651945193518816600160301b0267ffff00000000000019948916600160201b0265ffff0000000019968a16620100000263ffff00001994909a1661ffff1990991698909817929092169790971793909316949094171617909255835180850190945280845290830186815260ca8054938401815590915291516002919091027f42d72674974f694b5f5159593243114d38a5c39c89d6b62fee061ff523240ee18101805460ff9390931660ff199093169290921790915590517f42d72674974f694b5f5159593243114d38a5c39c89d6b62fee061ff523240ee2909101556113628882612c11565b61138361136d61230c565b42906001600160401b031663ffffffff612d4b16565b600082815260cf6020526040808220805467ffffffffffffffff19166001600160401b03949094169390931790925590516001600160a01b038a169183917f9f6c6fa7de67d487c8373360cc88ddcf9b3c5a0416d887ede5b0358fad1c71689190a3979650505050505050565b6000816113fc81612da8565b60c9838154811061140957fe5b60009182526020909120015461ffff169392505050565b61143161142b612ac0565b82612e01565b61146c5760405162461bcd60e51b815260040180806020018281038252603181526020018061459c6031913960400191505060405180910390fd5b611177838383612e9d565b60009081526097602052604090206002015490565b60008161149881612da8565b6114a96114a4846113f0565b612845565b9392505050565b6000816114bc81612da8565b60c983815481106114c957fe5b600091825260209091200154600160301b900461ffff169392505050565b600060038210156114fa57506001610fa3565b506000190190565b60008161150e81612da8565b60c9838154811061151b57fe5b60009182526020909120015462010000900461ffff169392505050565b611540612ba4565b600091825260cf6020526040909120805467ffffffffffffffff19166001600160401b03909216919091179055565b6000828152609760205260409020600201546115929061158d612ac0565b611d6c565b6115cd5760405162461bcd60e51b815260040180806020018281038252602f81526020018061433b602f913960400191505060405180910390fd5b6115d78282612ffb565b5050565b6001600160a01b03821660009081526065602052604081206114a9908363ffffffff61306a16565b60008161161257506004610fa3565b8160011415611623575060b4610fa3565b81600214156116355750610118610fa3565b8160031415611646575060c8610fa3565b5061010c919050565b611657612ac0565b6001600160a01b0316816001600160a01b0316146116a65760405162461bcd60e51b815260040180806020018281038252602f8152602001806145cd602f913960400191505060405180910390fd5b6115d78282613076565b60006116ce8561ffff168561ffff166116c986866130e5565b613111565b90505b949350505050565b60006116e3612ba4565b60006064830660018110156116fb5760049150611736565b600681101561170d5760039150611736565b601581101561171f5760029150611736565b60388110156117315760019150611736565b600091505b611741858386611fcf565b95945050505050565b611177838383604051806020016040528060008152506120ac565b600080600080611773612ba4565b8661177d81612da8565b600088815260cf602052604081205461179e906001600160401b03166111a2565b90508660ff168160ff1610156117f4576040805162461bcd60e51b81526020600482015260166024820152754e6f7420656e6f756768206475726162696c6974792160501b604482015290519081900360640190fd5b60ff808816610bb8029060149083161061185457806001600160401b031661181a61230c565b60008c815260cf60205260409020805467ffffffffffffffff19166001600160401b03928316420393909301909116919091179055611883565b60008a815260cf6020526040902080546001600160401b0380821684011667ffffffffffffffff199091161790555b600060c98b8154811061189257fe5b6000918252602090912001805490915061190b906118f5906118d89062010000810461ffff908116600160201b8304821601600160301b90920481169190910116613187565b60cb54600160801b9004600f90810b900b9063ffffffff6131a516565b60cb54600f90810b900b9063ffffffff6131dc16565b81546119399061ffff80821691620100008104821691600160201b8204811691600160301b9004168f61210a565b825460009061194b9061ffff16611db3565b929e919d509b50909950975050505050505050565b60c9818154811061196d57fe5b60009182526020909120015461ffff8082169250620100008204811691600160201b8104821691600160301b9091041684565b6000806119b460668463ffffffff61320f16565b509392505050565b600060056111948360ff166005612b32565b60d0546001600160a01b031681565b600081815260cf60205260408120546111da906001600160401b03166111a2565b604080516923a0a6a2afa0a226a4a760b11b8152905190819003600a01902081565b60006111da8260405180606001604052806029815260200161447e602991396066919063ffffffff61322b16565b606d8054604080516020601f60026000196101006001881615020190951694909404938401819004810282018101909252828152606093909290918301828280156110345780601f1061100957610100808354040283529160200191611034565b60006001600160a01b038216611af65760405162461bcd60e51b815260040180806020018281038252602a815260200180614454602a913960400191505060405180910390fd5b6001600160a01b03821660009081526065602052604090206111da90612b99565b60006005611b2d6000607c6116c98660026130e5565b607f16901b6003611b46600060036116c98760016130e5565b600316901b846007161717905092915050565b600054610100900460ff1680611b725750611b72613238565b80611b80575060005460ff16155b611bbb5760405162461bcd60e51b815260040180806020018281038252602e8152602001806144a7602e913960400191505060405180910390fd5b600054610100900460ff16158015611be6576000805460ff1961ff0019909116610100171660011790555b611c366040518060400160405280601381526020017210dc9e5c1d1bd09b1859195cc81cda1a595b19606a1b8152506040518060400160405280600381526020016243425360e81b815250613249565b611c3e613306565b611c496000336115cd565b611c536001613187565b60cb8054600f9290920b6001600160801b03166001600160801b0319909216919091179055611c8560016101906133a7565b60cb60106101000a8154816001600160801b030219169083600f0b6001600160801b03160217905550611cbd6118d8606760646133a7565b60cc8054600f9290920b6001600160801b03166001600160801b0319909216919091179055611cf16118d8606b60646133a7565b60cc60106101000a8154816001600160801b030219169083600f0b6001600160801b031602179055508015611d2c576000805461ff00191690555b50565b60cc54600160801b9004600f0b81565b610bb881565b60cb54600f0b81565b60008281526097602052604081206114a9908363ffffffff61306a16565b60008281526097602052604081206114a9908363ffffffff6133de16565b60008060008084611d9a81612da8565b611da3866133f3565b9450945094509450509193509193565b600390811c1690565b606b8054604080516020601f60026000196101006001881615020190951694909404938401819004810282018101909252828152606093909290918301828280156110345780601f1061100957610100808354040283529160200191611034565b611e25612ba4565b6161a8611e306111e0565b10611e71576040805162461bcd60e51b815260206004820152600c60248201526b4f7574206f662073746f636b60a01b604482015290519081900360640190fd5b6115d78182600143034060405160200180836001600160a01b03166001600160a01b031660601b8152601401828152602001925050506040516020818303038152906040528051906020012060001c6116d9565b600081565b611ed2612ac0565b6001600160a01b0316826001600160a01b03161415611f38576040805162461bcd60e51b815260206004820152601960248201527f4552433732313a20617070726f766520746f2063616c6c657200000000000000604482015290519081900360640190fd5b8060696000611f45612ac0565b6001600160a01b03908116825260208083019390935260409182016000908120918716808252919093529120805460ff191692151592909217909155611f89612ac0565b60408051841515815290516001600160a01b0392909216917f17307eab39ab6107e8899845ad3d59bd9653f200f220920489ca2b5937696c319181900360200190a35050565b6000611fd9612ba4565b600883106120185760405162461bcd60e51b81526004018080602001828103825260218152602001806142f86021913960400191505060405180910390fd5b60008060006120278686613411565b92509250925061204e8761203b8888611b17565b8585856120498b60036130e5565b6111f1565b979650505050505050565b60008161206581612da8565b6114a9612071846113f0565b611db3565b60008161208281612da8565b6114a961208e846113f0565b61117c565b60cb54600160801b9004600f0b81565b60cc54600f0b81565b6120bd6120b7612ac0565b83612e01565b6120f85760405162461bcd60e51b815260040180806020018281038252603181526020018061459c6031913960400191505060405180910390fd5b61210484848484613499565b50505050565b60008061211687612845565b60cb54909150600f0b60ff841661212c83612312565b60ff16141561217e5760cc546121779061216690600160801b9004600f0b61215761ffff8b16613187565b600f0b9063ffffffff6131a516565b600f83900b9063ffffffff6131dc16565b90506121d2565b61218782612312565b60ff16600414156121ad5760cc546121779061216690600f0b61215761ffff8b16613187565b60cb546121cf9061216690600160801b9004600f0b61215761ffff8b16613187565b90505b8360ff166121df836119bc565b60ff1614156122115760cc5461220a9061216690600160801b9004600f0b61215761ffff8a16613187565b9050612265565b61221a826119bc565b60ff16600414156122405760cc5461220a9061216690600f0b61215761ffff8a16613187565b60cb546122629061216690600160801b9004600f0b61215761ffff8a16613187565b90505b8360ff1661227283611182565b60ff1614156122a45760cc5461229d9061216690600160801b9004600f0b61215761ffff8916613187565b905061204e565b6122ad82611182565b60ff16600414156122d35760cc5461229d9061216690600f0b61215761ffff8916613187565b60cb546122f59061216690600160801b9004600f0b61215761ffff8916613187565b98975050505050505050565b60606111ec33612998565b61ea6090565b6000600560ff831661119b565b606061232a82612aad565b6123655760405162461bcd60e51b815260040180806020018281038252602f81526020018061454c602f913960400191505060405180910390fd5b6000828152606c602090815260409182902080548351601f60026000196101006001861615020190931692909204918201849004840281018401909452808452606093928301828280156123fa5780601f106123cf576101008083540402835291602001916123fa565b820191906000526020600020905b8154815290600101906020018083116123dd57829003601f168201915b50505050509050606061240b611a4e565b905080516000141561241f57509050610fa3565b8151156124e05780826040516020018083805190602001908083835b6020831061245a5780518252601f19909201916020918201910161243b565b51815160209384036101000a600019018019909216911617905285519190930192850191508083835b602083106124a25780518252601f199092019160209182019101612483565b6001836020036101000a0380198251168184511680821785525050505050509050019250505060405160208183030381529060405292505050610fa3565b806124ea856134eb565b6040516020018083805190602001908083835b6020831061251c5780518252601f1990920191602091820191016124fd565b51815160209384036101000a600019018019909216911617905285519190930192850191508083835b602083106125645780518252601f199092019160209182019101612545565b6001836020036101000a0380198251168184511680821785525050505050509050019250505060405160208183030381529060405292505050919050565b60008181526097602052604081206111da90612b99565b6000816125c581612da8565b6125cd614238565b60c984815481106125da57fe5b6000918252602080832060408051608081018252939091015461ffff80821685526201000082048116938501849052600160201b8204811692850192909252600160301b900416606083015260cb54919350600160801b909104600f0b919061264890839061215790613187565b9050600061266183612157866040015161ffff16613187565b9050600061267a84612157876060015161ffff16613187565b60cb549091506122f59082906126a19085908290600f90810b900b8863ffffffff6131dc16565b600f0b9063ffffffff6131dc16565b6000828152609760205260409020600201546126ce9061158d612ac0565b6116a65760405162461bcd60e51b81526004018080602001828103825260308152602001806143ec6030913960400191505060405180910390fd5b6000806000808561271981612da8565b600060c9888154811061272857fe5b6000918252602090912001805490915061276e906118f5906118d89062010000810461ffff908116600160201b8304821601600160301b90920481169190910116613187565b815461279c9061ffff80821691620100008104821691600160201b8204811691600160301b9004168c61210a565b82546000906127ae9061ffff16611db3565b929b919a509850909650945050505050565b6127cb600033611d6c565b612808576040805162461bcd60e51b81526020600482015260096024820152682737ba1030b236b4b760b91b604482015290519081900360640190fd5b60d080546001600160a01b0319166001600160a01b0392909216919091179055565b600090815260cf60205260409020546001600160401b031690565b60051c607f1690565b60008161285a81612da8565b60c9838154811061286757fe5b600091825260209091200154600160201b900461ffff169392505050565b61288d612ba4565b600082815260cf60205260408120546128ae906001600160401b03166111a2565b90508160ff168160ff161015612904576040805162461bcd60e51b81526020600482015260166024820152754e6f7420656e6f756768206475726162696c6974792160501b604482015290519081900360640190fd5b60ff808316610bb8029060149083161061296457806001600160401b031661292a61230c565b600086815260cf60205260409020805467ffffffffffffffff19166001600160401b03928316420393909301909116919091179055612104565b600084815260cf6020526040902080546001600160401b0380821684011667ffffffffffffffff1990911617905550505050565b6060806129a483611aaf565b6001600160401b03811180156129b957600080fd5b506040519080825280602002602001820160405280156129e3578160200160208202803683370190505b50905060005b8151811015612a1b576129fc84826115db565b828281518110612a0857fe5b60209081029190910101526001016129e9565b5092915050565b6001600160a01b03918216600090815260696020908152604080832093909416825291909152205460ff1690565b60006116d160008360ff166116c987876130e5565b601481565b60006014612a77836119dd565b60ff16101592915050565b60006001821115612a965750610190610fa3565b8115612aa5575061012c610fa3565b5060c8919050565b60006111da60668363ffffffff6135c516565b3390565b600081815260686020526040902080546001600160a01b0319166001600160a01b0384169081179091558190612af982611a20565b6001600160a01b03167f8c5be1e5ebec7d5bd14f71427d1e84f3dd0314c0f7b2291e5b200ac8c7c3b92560405160405180910390a45050565b6000808211612b88576040805162461bcd60e51b815260206004820152601a60248201527f536166654d6174683a206469766973696f6e206279207a65726f000000000000604482015290519081900360640190fd5b818381612b9157fe5b049392505050565b60006111da826135d1565b604080516923a0a6a2afa0a226a4a760b11b8152905190819003600a019020612bcd9033611d6c565b612c0f576040805162461bcd60e51b815260206004820152600e60248201526d2737ba1033b0b6b29030b236b4b760911b604482015290519081900360640190fd5b565b6001600160a01b038216612c6c576040805162461bcd60e51b815260206004820181905260248201527f4552433732313a206d696e7420746f20746865207a65726f2061646472657373604482015290519081900360640190fd5b612c7581612aad565b15612cc7576040805162461bcd60e51b815260206004820152601c60248201527f4552433732313a20746f6b656e20616c7265616479206d696e74656400000000604482015290519081900360640190fd5b612cd3600083836135d5565b6001600160a01b0382166000908152606560205260409020612cfb908263ffffffff6136ec16565b50612d0e6066828463ffffffff6136f816565b5060405181906001600160a01b038416906000907fddf252ad1be2c89b69c2b068fc378daa952ba7f163c4a11628f55a4df523b3ef908290a45050565b600082821115612da2576040805162461bcd60e51b815260206004820152601e60248201527f536166654d6174683a207375627472616374696f6e206f766572666c6f770000604482015290519081900360640190fd5b50900390565b60ce54811080612db957504360cd54105b611d2c576040805162461bcd60e51b81526020600482015260146024820152730546f6f20667265736820666f72206c6f6f6b75760641b604482015290519081900360640190fd5b6000612e0c82612aad565b612e475760405162461bcd60e51b815260040180806020018281038252602c8152602001806143c0602c913960400191505060405180910390fd5b6000612e5283611a20565b9050806001600160a01b0316846001600160a01b03161480612e8d5750836001600160a01b0316612e828461103f565b6001600160a01b0316145b806116d157506116d18185612a22565b826001600160a01b0316612eb082611a20565b6001600160a01b031614612ef55760405162461bcd60e51b81526004018080602001828103825260298152602001806145236029913960400191505060405180910390fd5b6001600160a01b038216612f3a5760405162461bcd60e51b815260040180806020018281038252602481526020018061439c6024913960400191505060405180910390fd5b612f458383836135d5565b612f50600082612ac4565b6001600160a01b0383166000908152606560205260409020612f78908263ffffffff61370e16565b506001600160a01b0382166000908152606560205260409020612fa1908263ffffffff6136ec16565b50612fb46066828463ffffffff6136f816565b5080826001600160a01b0316846001600160a01b03167fddf252ad1be2c89b69c2b068fc378daa952ba7f163c4a11628f55a4df523b3ef60405160405180910390a4505050565b6000828152609760205260409020613019908263ffffffff61371a16565b156115d757613026612ac0565b6001600160a01b0316816001600160a01b0316837f2f8788117e7eff1d82e926ec794901d17c78024a50270940304540a733656f0d60405160405180910390a45050565b60006114a9838361372f565b6000828152609760205260409020613094908263ffffffff61379316565b156115d7576130a1612ac0565b6001600160a01b0316816001600160a01b0316837ff6391f5c32d9c69d2a47ea670b442974b53935d1edc7fd64eb21e047a839171b60405160405180910390a45050565b604080516020808201949094528082019290925280518083038201815260609092019052805191012090565b6000806131356001613129868863ffffffff612d4b16565b9063ffffffff6137a816565b604080516020808201879052825180830382018152918301909252805191012090915060009061316b908363ffffffff61380216565b905061317d818763ffffffff6137a816565b9695505050505050565b6000677fffffffffffffff82111561319e57600080fd5b5060401b90565b6000600f83810b9083900b0260401d60016001607f1b031981128015906131d3575060016001607f1b038113155b6114a957600080fd5b6000600f83810b9083900b0160016001607f1b031981128015906131d3575060016001607f1b038113156114a957600080fd5b600080808061321e8686613869565b9097909650945050505050565b60006116d18484846138e4565b6000613243306139ae565b15905090565b600054610100900460ff16806132625750613262613238565b80613270575060005460ff16155b6132ab5760405162461bcd60e51b815260040180806020018281038252602e8152602001806144a7602e913960400191505060405180910390fd5b600054610100900460ff161580156132d6576000805460ff1961ff0019909116610100171660011790555b6132de613306565b6132e66139b4565b6132f08383613a51565b8015611177576000805461ff0019169055505050565b600054610100900460ff168061331f575061331f613238565b8061332d575060005460ff16155b6133685760405162461bcd60e51b815260040180806020018281038252602e8152602001806144a7602e913960400191505060405180910390fd5b600054610100900460ff16158015613393576000805460ff1961ff0019909116610100171660011790555b8015611d2c576000805461ff001916905550565b6000816133b357600080fd5b60006133bf8484613b36565b905060016001607f1b036001600160801b03821611156114a957600080fd5b60006114a9836001600160a01b038416613c7f565b60008060008061340285613c97565b93509350935093509193509193565b60008060008061342086611603565b9050600061342d87612a82565b9050600061343a886114e7565b9050600061344b84848a60056116b0565b9050600080600160ff8516111561346c5761346986868c60036116b0565b91505b60028460ff1611156134885761348586868c60046116b0565b90505b919750955093505050509250925092565b6134a4848484612e9d565b6134b084848484613d11565b6121045760405162461bcd60e51b815260040180806020018281038252603281526020018061436a6032913960400191505060405180910390fd5b60608161351057506040805180820190915260018152600360fc1b6020820152610fa3565b8160005b811561352857600101600a82049150613514565b6060816001600160401b038111801561354057600080fd5b506040519080825280601f01601f19166020018201604052801561356b576020820181803683370190505b50859350905060001982015b83156135bc57600a840660300160f81b8282806001900393508151811061359a57fe5b60200101906001600160f81b031916908160001a905350600a84049350613577565b50949350505050565b60006114a98383613c7f565b5490565b60d0546040805163434d82a360e01b81526001600160a01b0386811660048381019190915260248301529151919092169163434d82a3916044808301926020929190829003018186803b15801561362b57600080fd5b505afa15801561363f573d6000803e3d6000fd5b505050506040513d602081101561365557600080fd5b50511580156136e3575060d0546040805163434d82a360e01b81526001600160a01b0385811660048381019190915260248301529151919092169163434d82a3916044808301926020929190829003018186803b1580156136b557600080fd5b505afa1580156136c9573d6000803e3d6000fd5b505050506040513d60208110156136df57600080fd5b5051155b61117757600080fd5b60006114a98383613e91565b60006116d184846001600160a01b038516613edb565b60006114a98383613f72565b60006114a9836001600160a01b038416613e91565b815460009082106137715760405162461bcd60e51b81526004018080602001828103825260228152602001806143196022913960400191505060405180910390fd5b82600001828154811061378057fe5b9060005260206000200154905092915050565b60006114a9836001600160a01b038416613f72565b6000828201838110156114a9576040805162461bcd60e51b815260206004820152601b60248201527f536166654d6174683a206164646974696f6e206f766572666c6f770000000000604482015290519081900360640190fd5b6000808211613858576040805162461bcd60e51b815260206004820152601860248201527f536166654d6174683a206d6f64756c6f206279207a65726f0000000000000000604482015290519081900360640190fd5b81838161386157fe5b069392505050565b8154600090819083106138ad5760405162461bcd60e51b81526004018080602001828103825260228152602001806144d56022913960400191505060405180910390fd5b60008460000184815481106138be57fe5b906000526020600020906002020190508060000154816001015492509250509250929050565b6000828152600184016020526040812054828161397f5760405162461bcd60e51b81526004018080602001828103825283818151815260200191508051906020019080838360005b8381101561394457818101518382015260200161392c565b50505050905090810190601f1680156139715780820380516001836020036101000a031916815260200191505b509250505060405180910390fd5b5084600001600182038154811061399257fe5b9060005260206000209060020201600101549150509392505050565b3b151590565b600054610100900460ff16806139cd57506139cd613238565b806139db575060005460ff16155b613a165760405162461bcd60e51b815260040180806020018281038252602e8152602001806144a7602e913960400191505060405180910390fd5b600054610100900460ff16158015613a41576000805460ff1961ff0019909116610100171660011790555b6133936301ffc9a760e01b614038565b600054610100900460ff1680613a6a5750613a6a613238565b80613a78575060005460ff16155b613ab35760405162461bcd60e51b815260040180806020018281038252602e8152602001806144a7602e913960400191505060405180910390fd5b600054610100900460ff16158015613ade576000805460ff1961ff0019909116610100171660011790555b8251613af190606a90602086019061425f565b508151613b0590606b90602085019061425f565b50613b166380ac58cd60e01b614038565b613b26635b5e139f60e01b614038565b6132f063780e9d6360e01b614038565b600081613b4257600080fd5b60006001600160c01b038411613b675782604085901b81613b5f57fe5b049050613c6b565b60c084811c600160201b8110613b7f576020918201911c5b620100008110613b91576010918201911c5b6101008110613ba2576008918201911c5b60108110613bb2576004918201911c5b60048110613bc2576002918201911c5b60028110613bd1576001820191505b60bf820360018603901c6001018260ff0387901b81613bec57fe5b0492506001600160801b03831115613c0357600080fd5b608085901c83026001600160801b038616840260c088901c604089901b82811015613c2f576001820391505b608084901b92900382811015613c46576001820391505b829003608084901c8214613c5657fe5b888181613c5f57fe5b04870196505050505050505b6001600160801b038111156114a957600080fd5b60009081526001919091016020526040902054151590565b600080600080613ca5614238565b60c98681548110613cb257fe5b600091825260209182902060408051608081018252929091015461ffff8082168085526201000083048216958501869052600160201b83048216938501849052600160301b909204166060909301839052999298509650945092505050565b6000613d25846001600160a01b03166139ae565b613d31575060016116d1565b6060613e57630a85bd0160e11b613d46612ac0565b88878760405160240180856001600160a01b03166001600160a01b03168152602001846001600160a01b03166001600160a01b0316815260200183815260200180602001828103825283818151815260200191508051906020019080838360005b83811015613dbf578181015183820152602001613da7565b50505050905090810190601f168015613dec5780820380516001836020036101000a031916815260200191505b5095505050505050604051602081830303815290604052906001600160e01b0319166020820180516001600160e01b03838183161783525050505060405180606001604052806032815260200161436a603291396001600160a01b038816919063ffffffff6140bc16565b90506000818060200190516020811015613e7057600080fd5b50516001600160e01b031916630a85bd0160e11b1492505050949350505050565b6000613e9d8383613c7f565b613ed3575081546001818101845560008481526020808220909301849055845484825282860190935260409020919091556111da565b5060006111da565b600082815260018401602052604081205480613f405750506040805180820182528381526020808201848152865460018181018955600089815284812095516002909302909501918255915190820155865486845281880190925292909120556114a9565b82856000016001830381548110613f5357fe5b90600052602060002090600202016001018190555060009150506114a9565b6000818152600183016020526040812054801561402e5783546000198083019190810190600090879083908110613fa557fe5b9060005260206000200154905080876000018481548110613fc257fe5b600091825260208083209091019290925582815260018981019092526040902090840190558654879080613ff257fe5b600190038181906000526020600020016000905590558660010160008781526020019081526020016000206000905560019450505050506111da565b60009150506111da565b6001600160e01b03198082161415614097576040805162461bcd60e51b815260206004820152601c60248201527f4552433136353a20696e76616c696420696e7465726661636520696400000000604482015290519081900360640190fd5b6001600160e01b0319166000908152603360205260409020805460ff19166001179055565b60606116d18484600085856140d0856139ae565b614121576040805162461bcd60e51b815260206004820152601d60248201527f416464726573733a2063616c6c20746f206e6f6e2d636f6e7472616374000000604482015290519081900360640190fd5b60006060866001600160a01b031685876040518082805190602001908083835b602083106141605780518252601f199092019160209182019101614141565b6001836020036101000a03801982511681845116808217855250505050505090500191505060006040518083038185875af1925050503d80600081146141c2576040519150601f19603f3d011682016040523d82523d6000602084013e6141c7565b606091505b509150915061204e828286606083156141e15750816114a9565b8251156141f15782518084602001fd5b60405162461bcd60e51b815260206004820181815284516024840152845185939192839260440191908501908083836000831561394457818101518382015260200161392c565b60408051608081018252600080825260208201819052918101829052606081019190915290565b828054600181600116156101000203166002900490600052602060002090601f016020900481019282601f106142a057805160ff19168380011785556142cd565b828001600101855582156142cd579182015b828111156142cd5782518255916020019190600101906142b2565b506142d99291506142dd565b5090565b61103c91905b808211156142d957600081556001016142e356fe537461727320706172616d6574657220746f6f20686967682120286d6178203729456e756d657261626c655365743a20696e646578206f7574206f6620626f756e6473416363657373436f6e74726f6c3a2073656e646572206d75737420626520616e2061646d696e20746f206772616e744552433732313a207472616e7366657220746f206e6f6e20455243373231526563656976657220696d706c656d656e7465724552433732313a207472616e7366657220746f20746865207a65726f20616464726573734552433732313a206f70657261746f7220717565727920666f72206e6f6e6578697374656e7420746f6b656e416363657373436f6e74726f6c3a2073656e646572206d75737420626520616e2061646d696e20746f207265766f6b654552433732313a20617070726f76652063616c6c6572206973206e6f74206f776e6572206e6f7220617070726f76656420666f7220616c6c4552433732313a2062616c616e636520717565727920666f7220746865207a65726f20616464726573734552433732313a206f776e657220717565727920666f72206e6f6e6578697374656e7420746f6b656e496e697469616c697a61626c653a20636f6e747261637420697320616c726561647920696e697469616c697a6564456e756d657261626c654d61703a20696e646578206f7574206f6620626f756e64734552433732313a20617070726f76656420717565727920666f72206e6f6e6578697374656e7420746f6b656e4552433732313a207472616e73666572206f6620746f6b656e2074686174206973206e6f74206f776e4552433732314d657461646174613a2055524920717565727920666f72206e6f6e6578697374656e7420746f6b656e4552433732313a20617070726f76616c20746f2063757272656e74206f776e65724552433732313a207472616e736665722063616c6c6572206973206e6f74206f776e6572206e6f7220617070726f766564416363657373436f6e74726f6c3a2063616e206f6e6c792072656e6f756e636520726f6c657320666f722073656c66a2646970667358221220032caab940bcda46d8fad24e4234c15ca8ae2006a8c4c98ab4df5cad85db229764736f6c63430006050033",
    "sourcePath": "c:/Users/User/Documents/GitHub/crypto-blade/contracts/shields.sol",
    "compiler": {
        "name": "solc",
        "version": "0.6.5+commit.f956cc89"
    },
    "functionHashes": {
        "DEFAULT_ADMIN_ROLE()": "a217fddf",
        "GAME_ADMIN()": "5504d3d2",
        "approve(address,uint256)": "095ea7b3",
        "balanceOf(address)": "70a08231",
        "baseURI()": "6c0360eb",
        "defenseMultPerPointBasic()": "af8a29bf",
        "defenseMultPerPointDEF()": "b07f67b0",
        "defenseMultPerPointMatching()": "8b9b57bf",
        "drainDurability(uint256,uint8)": "e0760886",
        "get(uint256)": "9507d39a",
        "getApproved(uint256)": "081812fc",
        "getDefenseMultiplier(uint256)": "d3f6797c",
        "getDefenseMultiplierForTrait(uint16,uint16,uint16,uint16,uint8)": "baa049f4",
        "getDurabilityMaxWait()": "c366620b",
        "getDurabilityPoints(uint256)": "52bc59ea",
        "getDurabilityPointsFromTimestamp(uint64)": "16f1daf6",
        "getDurabilityTimestamp(uint256)": "d9514cb3",
        "getFightData(uint256,uint8)": "d58227c8",
        "getFightDataAndDrainDurability(uint256,uint8,uint8)": "44d59e0a",
        "getOwned()": "c3027525",
        "getOwnedBy(address)": "e291298f",
        "getProperties(uint256)": "1b8ca217",
        "getRandomCosmetic(uint256,uint256,uint8)": "ecd4738b",
        "getRandomProperties(uint256,uint256)": "80aa68cd",
        "getRandomStat(uint16,uint16,uint256,uint256)": "3e68b604",
        "getRoleAdmin(bytes32)": "248a9ca3",
        "getRoleMember(bytes32,uint256)": "9010d07c",
        "getRoleMemberCount(bytes32)": "ca15c873",
        "getStars(uint256)": "adf04f20",
        "getStarsFromProperties(uint16)": "0a583a93",
        "getStat1(uint256)": "2c3048a2",
        "getStat1Trait(uint8)": "c6a51088",
        "getStat2(uint256)": "e06efad8",
        "getStat2Trait(uint8)": "4fbff6a2",
        "getStat3(uint256)": "27cd91de",
        "getStat3Trait(uint8)": "0a724cff",
        "getStatCount(uint256)": "2a9f22f2",
        "getStatMaxRoll(uint256)": "fa9e8398",
        "getStatMinRoll(uint256)": "316a7ba5",
        "getStatPattern(uint256)": "24f7bb1b",
        "getStatPatternFromProperties(uint16)": "dfd37129",
        "getTrait(uint256)": "acb586df",
        "getTraitFromProperties(uint16)": "95d06a0f",
        "grantRole(bytes32,address)": "2f2ff15d",
        "hasRole(bytes32,address)": "91d14854",
        "initialize()": "8129fc1c",
        "isApprovedForAll(address,address)": "e985e9c5",
        "isDurabilityFull(uint256)": "fa9b6e87",
        "maxDurability()": "f8e678a7",
        "migrateTo_surprise(address)": "d7af7ad2",
        "mint(address,uint256)": "40c10f19",
        "mintForPurchase(address)": "9e2e3462",
        "mintShieldWithStars(address,uint256,uint256)": "ac69ccc7",
        "name()": "06fdde03",
        "ownerOf(uint256)": "6352211e",
        "performMintShield(address,uint16,uint16,uint16,uint16,uint256)": "1a71516e",
        "promos()": "51e717ac",
        "renounceRole(bytes32,address)": "36568abe",
        "revokeRole(bytes32,address)": "d547741f",
        "safeTransferFrom(address,address,uint256)": "42842e0e",
        "safeTransferFrom(address,address,uint256,bytes)": "b88d4fde",
        "secondsPerDurability()": "8c7f7242",
        "setApprovalForAll(address,bool)": "a22cb465",
        "setDurabilityTimestamp(uint256,uint64)": "2c3fc619",
        "shieldBaseMultiplier()": "8cfd4e2d",
        "supportsInterface(bytes4)": "01ffc9a7",
        "symbol()": "95d89b41",
        "tokenByIndex(uint256)": "4f6ccce7",
        "tokenOfOwnerByIndex(address,uint256)": "2f745c59",
        "tokenURI(uint256)": "c87b56dd",
        "tokens(uint256)": "4f64b2be",
        "totalSupply()": "18160ddd",
        "transferFrom(address,address,uint256)": "23b872dd"
    },
    "gasEstimates": {
        "creation": {
            "codeDepositCost": "3593800",
            "executionCost": "4039",
            "totalCost": "3597839"
        },
        "external": {
            "DEFAULT_ADMIN_ROLE()": "266",
            "GAME_ADMIN()": "416",
            "approve(address,uint256)": "infinite",
            "balanceOf(address)": "infinite",
            "baseURI()": "infinite",
            "defenseMultPerPointBasic()": "1134",
            "defenseMultPerPointDEF()": "1139",
            "defenseMultPerPointMatching()": "1114",
            "drainDurability(uint256,uint8)": "infinite",
            "get(uint256)": "4290",
            "getApproved(uint256)": "infinite",
            "getDefenseMultiplier(uint256)": "infinite",
            "getDefenseMultiplierForTrait(uint16,uint16,uint16,uint16,uint8)": "infinite",
            "getDurabilityMaxWait()": "309",
            "getDurabilityPoints(uint256)": "infinite",
            "getDurabilityPointsFromTimestamp(uint64)": "495",
            "getDurabilityTimestamp(uint256)": "1212",
            "getFightData(uint256,uint8)": "infinite",
            "getFightDataAndDrainDurability(uint256,uint8,uint8)": "infinite",
            "getOwned()": "infinite",
            "getOwnedBy(address)": "infinite",
            "getProperties(uint256)": "3704",
            "getRandomCosmetic(uint256,uint256,uint8)": "infinite",
            "getRandomProperties(uint256,uint256)": "infinite",
            "getRandomStat(uint16,uint16,uint256,uint256)": "infinite",
            "getRoleAdmin(bytes32)": "1225",
            "getRoleMember(bytes32,uint256)": "infinite",
            "getRoleMemberCount(bytes32)": "infinite",
            "getStars(uint256)": "infinite",
            "getStarsFromProperties(uint16)": "327",
            "getStat1(uint256)": "3758",
            "getStat1Trait(uint8)": "403",
            "getStat2(uint256)": "3763",
            "getStat2Trait(uint8)": "457",
            "getStat3(uint256)": "3720",
            "getStat3Trait(uint8)": "480",
            "getStatCount(uint256)": "386",
            "getStatMaxRoll(uint256)": "470",
            "getStatMinRoll(uint256)": "456",
            "getStatPattern(uint256)": "infinite",
            "getStatPatternFromProperties(uint16)": "353",
            "getTrait(uint256)": "infinite",
            "getTraitFromProperties(uint16)": "379",
            "grantRole(bytes32,address)": "infinite",
            "hasRole(bytes32,address)": "infinite",
            "initialize()": "infinite",
            "isApprovedForAll(address,address)": "1328",
            "isDurabilityFull(uint256)": "infinite",
            "maxDurability()": "308",
            "migrateTo_surprise(address)": "infinite",
            "mint(address,uint256)": "infinite",
            "mintForPurchase(address)": "infinite",
            "mintShieldWithStars(address,uint256,uint256)": "infinite",
            "name()": "infinite",
            "ownerOf(uint256)": "infinite",
            "performMintShield(address,uint16,uint16,uint16,uint16,uint256)": "infinite",
            "promos()": "1127",
            "renounceRole(bytes32,address)": "infinite",
            "revokeRole(bytes32,address)": "infinite",
            "safeTransferFrom(address,address,uint256)": "infinite",
            "safeTransferFrom(address,address,uint256,bytes)": "infinite",
            "secondsPerDurability()": "289",
            "setApprovalForAll(address,bool)": "infinite",
            "setDurabilityTimestamp(uint256,uint64)": "infinite",
            "shieldBaseMultiplier()": "1141",
            "supportsInterface(bytes4)": "1239",
            "symbol()": "infinite",
            "tokenByIndex(uint256)": "infinite",
            "tokenOfOwnerByIndex(address,uint256)": "infinite",
            "tokenURI(uint256)": "infinite",
            "tokens(uint256)": "2230",
            "totalSupply()": "1208",
            "transferFrom(address,address,uint256)": "infinite"
        },
        "internal": {
            "_beforeTokenTransfer(address,address,uint256)": "infinite",
            "_get(uint256)": "infinite",
            "_noFreshLookup(uint256)": "infinite",
            "_restricted()": "infinite",
            "getStatRolls(uint256,uint256)": "infinite",
            "getStats(uint256)": "infinite"
        }
    }
}